:020000040800F2
:1000000000000120152F0008591E00085B1E000883
:100010005D1E00085F1E0008611E00080000000051
:10002000000000000000000000000000631E000847
:10003000651E000800000000671E0008691E000819
:10004000652F0008652F0008652F0008652F000840
:10005000652F0008652F0008652F0008652F000830
:10006000652F0008652F0008652F0008652F000820
:10007000652F0008652F0008652F0008652F000810
:10008000652F0008652F0008652F0008000000009C
:10009000000000000000000000000000652F0008C4
:1000A000652F0008711E0008652F0008652F0008E5
:1000B000811E0008652F0008652F0008652F0008C5
:1000C000652F0008652F0008652F0008652F0008C0
:1000D000652F0008911E0008A11E00080000000006
:1000E000652F0008652F0008652F0008000000003C
:1000F000000000000000000000000000652F000864
:1001000000000000652F0008652F0008652F00081B
:1001100000000000000000000000000000000000DF
:10012000652F0008652F0008652F0008652F00085F
:10013000652F000800000000000000000000000023
:10014000000000000000000000000000652F000813
:10015000652F0008652F0008652F0008B11E0008F4
:10016000652F0008652F0008000000000000000057
:10017000000000000000000000000000000000007F
:1001800000000000652F00080000000000000000D3
:04019000652F0008CF
:1001C00010B5054C237833B9044B13B10448AFF391
:1001D00000800123237010BDD8090020000000001A
:1001E00050C1000808B5034B1BB103490348AFF3E6
:1001F000008008BD00000000DC09002050C100089C
:1002000081F0004102E000BF83F0004330B54FEAC7
:1002100041044FEA430594EA050F08BF90EA020F34
:100220001FBF54EA000C55EA020C7FEA645C7FEAC7
:10023000655C00F0E2804FEA5454D4EB5555B8BFEA
:100240006D420CDD2C4480EA020281EA030382EA5B
:10025000000083EA010180EA020281EA0303362DED
:1002600088BF30BD11F0004F4FEA01314FF4801CC0
:100270004CEA113102D0404261EB410113F0004FD2
:100280004FEA03334CEA133302D0524263EB430389
:1002900094EA050F00F0A780A4F10104D5F1200E27
:1002A0000DDB02FA0EFC22FA05F2801841F1000182
:1002B00003FA0EF2801843FA05F359410EE0A5F156
:1002C00020050EF1200E012A03FA0EFC28BF4CF087
:1002D000020C43FA05F3C01851EBE37101F000453D
:1002E00007D54FF0000EDCF1000C7EEB00006EEB4A
:1002F0000101B1F5801F1BD3B1F5001F0CD34908D4
:100300005FEA30004FEA3C0C04F101044FEA44522A
:1003100012F5800F80F09A80BCF1004F08BF5FEAB1
:10032000500C50F1000041EB045141EA050130BD91
:100330005FEA4C0C404141EB0101013C28BFB1F5A3
:10034000801FE9D291F0000F04BF01460020B1FAEE
:1003500081F308BF2033A3F10B03B3F120020CDAC1
:100360000C3208DD02F1140CC2F10C0201FA0CF09F
:1003700021FA02F10CE002F11402D8BFC2F1200C04
:1003800001FA02F120FA0CFCDCBF41EA0C019040BA
:10039000E41AA2BF01EB0451294330BD6FEA040403
:1003A0001F3C1CDA0C340EDC04F11404C4F12002EE
:1003B00020FA04F001FA02F340EA030021FA04F300
:1003C00045EA030130BDC4F10C04C4F1200220FA57
:1003D00002F001FA04F340EA0300294630BD21FA95
:1003E00004F0294630BD94F0000F83F4801306BF5B
:1003F00081F480110134013D4EE77FEA645C18BF4F
:100400007FEA655C29D094EA050F08BF90EA020FE5
:1004100005D054EA000C04BF1946104630BD91EADD
:10042000030F1EBF0021002030BD5FEA545C05D1E0
:100430004000494128BF41F0004130BD14F580041F
:100440003CBF01F5801130BD01F0004545F0FE4193
:1004500041F470014FF0000030BD7FEA645C1ABFC8
:10046000194610467FEA655C1CBF0B46024650EAFF
:10047000013406BF52EA033591EA030F41F400212B
:1004800030BD00BF90F0000F04BF0021704730B5B1
:100490004FF4806404F132044FF000054FF0000186
:1004A00050E700BF90F0000F04BF0021704730B547
:1004B0004FF4806404F1320410F0004548BF40421C
:1004C0004FF000013EE700BF42004FEAE2014FEA71
:1004D00031014FEA02701FBF12F07F4393F07F4F4C
:1004E00081F06051704732F07F4208BF704793F04F
:1004F0007F4F04BF41F40021704730B54FF4607462
:1005000001F0004521F000411CE700BF50EA010264
:1005100008BF704730B54FF000050AE050EA01020D
:1005200008BF704730B511F0004502D5404261EB7D
:1005300041014FF4806404F132045FEA915C3FF4BE
:10054000D8AE4FF003025FEADC0C18BF03325FEA5B
:10055000DC0C18BF033202EBDC02C2F1200300FA0C
:1005600003FC20FA02F001FA03FE40EA0E0021FA31
:1005700002F11444BDE600BF4FF0FF3C06E000BFAF
:100580004FF0010C02E000BF4FF0010C4DF804CD1C
:100590004FEA410C7FEA6C5C4FEA430C18BF7FEADC
:1005A0006C5C1BD001B050EA410C0CBF52EA430C0A
:1005B00091EA030F02BF90EA020F0020704710F18A
:1005C000000F91EA030F58BF994208BF90422CBF19
:1005D000D8176FEAE37040F0010070474FEA410C12
:1005E0007FEA6C5C02D150EA013C07D14FEA430C30
:1005F0007FEA6C5CD6D152EA033CD3D05DF8040BA1
:10060000704700BF8446104662468C4619466346D2
:1006100000E000BF01B5FFF7B7FF002848BF10F1A9
:10062000000F01BD4DF808EDFFF7F4FF0CBF0120EE
:1006300000205DF808FB00BF4DF808EDFFF7EAFF6A
:1006400034BF012000205DF808FB00BF4DF808ED25
:10065000FFF7E0FF94BF012000205DF808FB00BF1A
:100660004DF808EDFFF7CEFF94BF012000205DF8A4
:1006700008FB00BF4DF808EDFFF7C4FF34BF0120B1
:1006800000205DF808FB00BF4FEA410212F500129E
:1006900015D211D56FF47873B3EB625212D94FEAC9
:1006A000C12343F0004343EA505311F0004F23FAB3
:1006B00002F018BF404270474FF00000704750EA08
:1006C000013005D111F0004008BF6FF000407047C5
:1006D0004FF00000704700BF4A0011D212F500121F
:1006E00011D20DD56FF47873B3EB62520ED44FEA8A
:1006F000C12343F0004343EA505323FA02F070470A
:100700004FF00000704750EA013002D14FF0FF3047
:1007100070474FF0000070474FEA4102B2F1E043EA
:1007200024BFB3F5001CDCF1FE5C0DD901F0004CD8
:100730004FEAC0024CEA5070B2F1004F40EB830028
:1007400008BF20F00100704711F0804F21D113F154
:100750003872BCBF01F00040704741F480114FEA8D
:100760005252C2F11802C2F1200C10FA0CF320FA16
:1007700002F018BF40F001004FEAC1234FEAD32333
:1007800003FA0CFC40EA0C0023FA02F34FEA43039D
:10079000CCE77FEA625307D150EA01331EBF4FF026
:1007A000FE4040F44000704701F0004040F0FE4041
:1007B00040F40000704700BF80F0004002E000BF3E
:1007C00081F0004142001FBF5FEA410392EA030F3C
:1007D0007FEA226C7FEA236C6AD04FEA1262D2EB86
:1007E0001363C1BFD218414048404140B8BF5B428B
:1007F000192B88BF704710F0004F40F4000020F024
:100800007F4018BF404211F0004F41F4000121F039
:100810007F4118BF494292EA030F3FD0A2F1010283
:1008200041FA03FC10EB0C00C3F1200301FA03F1C1
:1008300000F0004302D5494260EB4000B0F5000FE4
:1008400013D3B0F1807F06D340084FEA310102F1A3
:100850000102FE2A51D2B1F1004F40EBC25008BF55
:1008600020F0010040EA03007047490040EB00001F
:10087000013A28BFB0F5000FEDD2B0FA80FCACF120
:10088000080CB2EB0C0200FA0CF0AABF00EBC2504D
:1008900052421843BCBFD0401843704792F0000F3B
:1008A00081F4000106BF80F400000132013BB5E78E
:1008B0004FEA41037FEA226C18BF7FEA236C21D004
:1008C00092EA030F04D092F0000F08BF0846704769
:1008D00090EA010F1CBF0020704712F07F4F04D137
:1008E000400028BF40F00040704712F100723CBF4A
:1008F00000F50000704700F0004343F0FE4040F474
:10090000000070477FEA226216BF08467FEA236331
:100910000146420206BF5FEA412390EA010F40F41C
:10092000800070474FF0000304E000BF10F0004368
:1009300048BF40425FEA000C08BF704743F096434F
:1009400001464FF000001CE050EA010208BF70476A
:100950004FF000030AE000BF50EA010208BF7047F1
:1009600011F0004302D5404261EB41015FEA010C06
:1009700002BF84460146002043F0B64308BFA3F1FE
:100980008053A3F50003BCFA8CF2083AA3EBC253E0
:1009900010DB01FA02FC634400FA02FCC2F12002FF
:1009A000BCF1004F20FA02F243EB020008BF20F036
:1009B0000100704702F1200201FA02FCC2F120029C
:1009C00050EA4C0021FA02F243EB020008BF20EA91
:1009D000DC7070474FF0FF0C1CEAD0521EBF1CEABF
:1009E000D15392EA0C0F93EA0C0F6FD01A4480EAAD
:1009F000010C400218BF5FEA41211ED04FF0006396
:100A000043EA501043EA5111A0FB01310CF00040C1
:100A1000B1F5000F3EBF490041EAD3715B0040EAE7
:100A2000010062F17F02FD2A1DD8B3F1004F40EBB7
:100A3000C25008BF20F00100704790F0000F0CF08A
:100A4000004C08BF49024CEA502040EA51207F3A4E
:100A5000C2BFD2F1FF0340EAC250704740F4000029
:100A60004FF00003013A5DDC12F1190FDCBF00F01A
:100A700000407047C2F10002410021FA02F1C2F1C8
:100A8000200200FA02FC5FEA310040F1000053EA64
:100A90004C0308BF20EADC70704792F0000F00F0B2
:100AA000004C02BF400010F4000F013AF9D040EAB8
:100AB0000C0093F0000F01F0004C02BF490011F44C
:100AC000000F013BF9D041EA0C018FE70CEAD1534A
:100AD00092EA0C0F18BF93EA0C0F0AD030F0004CCA
:100AE00018BF31F0004CD8D180EA010000F000407E
:100AF000704790F0000F17BF90F0004F084691F03C
:100B0000000F91F0004F14D092EA0C0F01D1420275
:100B10000FD193EA0C0F03D14B0218BF084608D13E
:100B200080EA010000F0004040F0FE4040F4000088
:100B3000704740F0FE4040F4400070474FF0FF0C1B
:100B40001CEAD0521EBF1CEAD15392EA0C0F93EA62
:100B50000C0F69D0A2EB030280EA010C49024FEAB4
:100B6000402037D04FF0805343EA111143EA10136D
:100B70000CF000408B4238BF5B0042F17D024FF425
:100B8000000C8B4224BF5B1A40EA0C00B3EB510F00
:100B900024BFA3EB510340EA5C00B3EB910F24BFE9
:100BA000A3EB910340EA9C00B3EBD10F24BFA3EB6E
:100BB000D10340EADC001B0118BF5FEA1C1CE0D136
:100BC000FD2A3FF650AF8B4240EBC25008BF20F0E9
:100BD000010070470CF0004C4CEA50207F32C2BF3D
:100BE000D2F1FF0340EAC250704740F400004FF0DA
:100BF0000003013A37E792F0000F00F0004C02BF0B
:100C0000400010F4000F013AF9D040EA0C0093F0D4
:100C1000000F01F0004C02BF490011F4000F013B2E
:100C2000F9D041EA0C0195E70CEAD15392EA0C0F96
:100C300008D142027FF47DAF93EA0C0F7FF470AFCE
:100C4000084676E793EA0C0F04D14B023FF44CAF11
:100C500008466EE730F0004C18BF31F0004CCAD1A6
:100C600030F000427FF45CAF31F000437FF43CAFE2
:100C70005FE700BF4FF0FF3C06E000BF4FF0010C04
:100C800002E000BF4FF0010C4DF804CD4FEA4002E6
:100C90004FEA41037FEA226C18BF7FEA236C11D030
:100CA00001B052EA530C18BF90EA010F58BFB2EBE3
:100CB000030088BFC81738BF6FEAE17018BF40F063
:100CC000010070477FEA226C02D15FEA402C05D117
:100CD0007FEA236CE4D15FEA412CE1D05DF8040B9C
:100CE000704700BF844608466146FFE70FB5FFF72F
:100CF000C9FF002848BF10F1000F0FBD4DF808EDE7
:100D0000FFF7F4FF0CBF012000205DF808FB00BFD7
:100D10004DF808EDFFF7EAFF34BF012000205DF831
:100D200008FB00BF4DF808EDFFF7E0FF94BF01207E
:100D300000205DF808FB00BF4DF808EDFFF7D2FF7B
:100D400094BF012000205DF808FB00BF4DF808EDBE
:100D5000FFF7C8FF34BF012000205DF808FB00BF8B
:100D60004FEA4002B2F1FE4F0FD34FF09E03B3EBB8
:100D700012620DD94FEA002343F0004310F0004FF8
:100D800023FA02F018BF404270474FF0000070474E
:100D900012F1610F01D1420205D110F0004008BFED
:100DA0006FF0004070474FF00000704742000ED2D5
:100DB000B2F1FE4F0BD34FF09E03B3EB126209D496
:100DC0004FEA002343F0004323FA02F070474FF04C
:100DD0000000704712F1610F01D1420202D14FF0C1
:100DE000FF3070474FF00000704700BF53B94AB959
:100DF000002908BF00281CBF4FF0FF314FF0FF3023
:100E000000F074B9ADF1080C6DE904CE00F006F8FD
:100E1000DDF804E0DDE9022304B070472DE9F04776
:100E2000089E0D4604468846002B4DD18A429446C2
:100E300068D9B2FA82F252B101FA02F3C2F120018A
:100E400020FA01F10CFA02FC41EA030894404FEA4F
:100E50001C45210CB8FBF5FE1FFA8CF705FB1E8321
:100E600041EA03430EFB07F199420BD91CEB030344
:100E70000EF1FF3080F01E81994240F21B81AEF1ED
:100E8000020E63445B1AA4B2B3FBF5F005FB10330A
:100E900044EA034400FB07F7A7420AD91CEB040409
:100EA00000F1FF3380F00881A74240F205816444DD
:100EB0000238E41B40EA0E4000211EB1D44000235A
:100EC000C6E90043BDE8F0878B4208D9002E00F048
:100ED000EE800021C6E900050846BDE8F087B3FAB8
:100EE00083F100294AD1AB4202D3824200F2F98059
:100EF000841A65EB030301209846002EE2D0C6E970
:100F00000048DFE702B9FFDEB2FA82F2002A40F0C1
:100F10009180A1EB0C054FEA1C471FFA8CFE0121C2
:100F2000B5FBF7F307FB1350250C45EA00450EFB14
:100F300003F0A84208D91CEB050503F1FF3802D2E3
:100F4000A84200F2CB8043462D1AA4B2B5FBF7F0BD
:100F500007FB105544EA05440EFB00FEA64508D9E0
:100F60001CEB040400F1FF3502D2A64500F2BB8061
:100F70002846A4EB0E0440EA03409EE7C1F1200797
:100F80008B4022FA07FC4CEA030C20FA07F405FA1E
:100F900001F31C43FD404FEA1C4900FA01F3B5FB85
:100FA000F9F8200C1FFA8CFE09FB185540EA05459C
:100FB00008FB0EF0A84202FA01F20BD91CEB050562
:100FC00008F1FF3A80F08880A84240F28580A8F1BD
:100FD000020865442D1AA4B2B5FBF9F009FB1055BF
:100FE00044EA054500FB0EFEAE4508D91CEB05059D
:100FF00000F1FF346CD2AE456AD90238654440EA4C
:101000000840A0FB0294A5EB0E05A542C846A646E3
:1010100056D353D05EB1B3EB080265EB0E0505FA6B
:1010200007F722FA01F3CD401F43C6E900750021FE
:10103000BDE8F087C2F1200320FA03F10CFA02FCAC
:1010400025FA03F395400D434FEA1C471FFA8CFE27
:10105000B3FBF7F107FB11302B0C43EA004301FB14
:101060000EF0984204FA02F408D91CEB030301F1D4
:10107000FF382FD298422DD9023963441B1AADB2E2
:10108000B3FBF7F007FB103345EA034500FB0EF313
:10109000AB4208D91CEB050500F1FF3816D2AB4274
:1010A00014D902386544ED1A40EA014138E7314667
:1010B000304607E78646E5E61846FAE64B45A9D2EC
:1010C000B9EB020864EB0C0E0138A3E74046EAE7EF
:1010D000204694E74146D1E7D0467BE7023B654492
:1010E00032E7084609E76444023842E7704700BF28
:1010F00001F0FF01102A2BDB10F0070F08D010F8C9
:10110000013B013A8B422DD010F0070F42B3F6D1CC
:10111000F0B441EA012141EA014122F007047FF0E5
:1011200000070023F0E80256083C85EA010586EA3C
:10113000010685FA47F5A3FA87F586FA47F6A5FA78
:1011400087F68EB9EED1F0BC01F0FF0102F0070284
:1011500032B110F8013B013A83EA010313B1F8D12F
:101160000020704701387047002D06BF3546033810
:10117000073815F0010F07D1013015F4807F02BF49
:10118000013015F4C03F0130F0BC0138704700BF9A
:10119000844641EA000313F003036DD1403A41D382
:1011A00051F8043B40F8043B51F8043B40F8043B41
:1011B00051F8043B40F8043B51F8043B40F8043B31
:1011C00051F8043B40F8043B51F8043B40F8043B21
:1011D00051F8043B40F8043B51F8043B40F8043B11
:1011E00051F8043B40F8043B51F8043B40F8043B01
:1011F00051F8043B40F8043B51F8043B40F8043BF1
:1012000051F8043B40F8043B51F8043B40F8043BE0
:1012100051F8043B40F8043B51F8043B40F8043BD0
:10122000403ABDD2303211D351F8043B40F8043B70
:1012300051F8043B40F8043B51F8043B40F8043BB0
:1012400051F8043B40F8043B103AEDD20C3205D380
:1012500051F8043B40F8043B043AF9D2043208D078
:10126000D2071CBF11F8013B00F8013B01D30B88EA
:1012700003806046704700BF082A13D38B078DD0C8
:1012800010F003038AD0C3F10403D21ADB071CBF9A
:1012900011F8013B00F8013B80D331F8023B20F804
:1012A000023B7BE7043AD9D3013A11F8013B00F83D
:1012B000013BF9D20B7803704B7843708B788370C5
:1012C00060467047000000000000000000000000C1
:1012D000000000000000000000000000000000000E
:1012E00000000000000000000000000000000000FE
:1012F00000000000000000000000000000000000EE
:1013000090F800F06DE9024520F007016FF0000C45
:1013100010F0070491F820F040F049804FF00004ED
:101320006FF00700D1E9002391F840F000F10800C8
:1013300082FA4CF2A4FA8CF283FA4CF3A2FA8CF300
:101340004BBBD1E9022382FA4CF200F10800A4FA67
:101350008CF283FA4CF3A2FA8CF3E3B9D1E90423BB
:1013600082FA4CF200F10800A4FA8CF283FA4CF3F2
:10137000A2FA8CF37BB9D1E9062301F1200182FAAC
:101380004CF200F10800A4FA8CF283FA4CF3A2FAB2
:101390008CF3002BC6D0002A04BF04301A4612BAC0
:1013A000B2FA82F2FDE8024500EBD2007047D1E9C3
:1013B000002304F00305C4F100004FEAC50514F052
:1013C000040F91F840F00CFA05F562EA05021CBF23
:1013D00063EA050362464FF00004A9E770B54FF0D9
:1013E000FF0C4CF4E06C1CEA11541DBF1CEA1355B1
:1013F00094EA0C0F95EA0C0F00F0DEF82C4481EA19
:10140000030621EA4C5123EA4C5350EA013518BF38
:1014100052EA033541F4801143F4801338D0A0FB25
:1014200002CE4FF00005E1FB02E506F00042E0FBD2
:1014300003E54FF00006E1FB03569CF0000F18BFD8
:101440004EF0010EA4F1FF04B6F5007F64F5407480
:1014500004D25FEA4E0E6D4146EB060642EAC62113
:1014600041EA55514FEAC52040EA5E504FEACE2E80
:10147000B4F1FD0C88BFBCF5E06F1ED8BEF1004F83
:1014800008BF5FEA500E50F1000041EB045170BDFF
:1014900006F0004646EA010140EA020081EA030143
:1014A000B4EB5C04C2BFD4EB0C0541EA045170BD3F
:1014B00041F480114FF0000E013C00F3AB8014F1B9
:1014C000360FDEBF002001F0004170BDC4F1000402
:1014D000203C35DA0C341BDC04F11404C4F1200583
:1014E00000FA05F320FA04F001FA05F240EA0200DE
:1014F00001F0004221F0004110EBD37021FA04F614
:1015000042EB06015EEA430E08BF20EAD37070BDCD
:10151000C4F10C04C4F1200500FA04F320FA05F02C
:1015200001FA04F240EA020001F0004110EBD3702E
:1015300041F100015EEA430E08BF20EAD37070BD9E
:10154000C4F1200500FA05F24EEA020E20FA04F377
:1015500001FA05F243EA020321FA04F001F0004126
:1015600021FA04F220EA020000EBD3705EEA430E97
:1015700008BF20EAD37070BD94F0000F0FD101F0C6
:101580000046400041EB010111F4801F08BF013CFF
:10159000F7D041EA060195F0000F18BF704703F03D
:1015A0000046520043EB030313F4801F08BF013DC4
:1015B000F7D043EA0603704794EA0C0F0CEA135580
:1015C00018BF95EA0C0F0CD050EA410618BF52EA3A
:1015D0004306D1D181EA030101F000414FF0000040
:1015E00070BD50EA410606BF1046194652EA43064E
:1015F00019D094EA0C0F02D150EA013613D195EAC2
:101600000C0F05D152EA03361CBF104619460AD109
:1016100081EA030101F0004141F0FE4141F4700113
:101620004FF0000070BD41F0FE4141F4780170BD03
:1016300070B54FF0FF0C4CF4E06C1CEA11541DBF68
:101640001CEA135594EA0C0F95EA0C0F00F0A7F86A
:10165000A4EB050481EA030E52EA03354FEA013197
:1016600000F088804FEA03334FF0805545EA1313AA
:1016700043EA12634FEA022245EA111545EA106572
:101680004FEA00260EF000419D4208BF964244F109
:10169000FD0404F5407402D25B084FEA3202B61A28
:1016A00065EB03055B084FEA32024FF480104FF4FC
:1016B000002CB6EB020E75EB030E22BFB61A754670
:1016C00040EA0C005B084FEA3202B6EB020E75EB03
:1016D000030E22BFB61A754640EA5C005B084FEA6B
:1016E0003202B6EB020E75EB030E22BFB61A754638
:1016F00040EA9C005B084FEA3202B6EB020E75EB43
:10170000030E22BFB61A754640EADC0055EA060E03
:1017100018D04FEA051545EA16754FEA06164FEA46
:10172000C30343EA52734FEAC2025FEA1C1CC0D1F2
:1017300011F4801F0BD141EA00014FF000004FF07F
:10174000004CB6E711F4801F04BF01430020B4F140
:10175000FD0C88BFBCF5E06F3FF6AFAEB5EB030CF8
:1017600004BFB6EB020C5FEA500C50F1000041EBF5
:10177000045170BD0EF0004E4EEA113114EB5C04C2
:10178000C2BFD4EB0C0541EA045170BD41F4801195
:101790004FF0000E013C90E645EA060E8DE60CEA9D
:1017A000135594EA0C0F08BF95EA0C0F3FF43BAFBA
:1017B00094EA0C0F0AD150EA01347FF434AF95EA71
:1017C0000C0F7FF425AF104619462CE795EA0C0F55
:1017D00006D152EA03353FF4FDAE1046194622E722
:1017E00050EA410618BF52EA43067FF4C5AE50EAFC
:1017F00041047FF40DAF52EA43057FF4EBAE12E7EC
:101800004FEA410C7FEA6C5C02D150EA013C0AD1FC
:101810004FEA430C7FEA6C5C02D152EA033C02D1EE
:101820004FF0000070474FF0010070472DE9F04382
:101830008BB00024059406940794089409940194AD
:101840003E4B1A6B42F004021A631A6B02F0040258
:101850000192019A02941A6B42F080021A631A6B89
:1018600002F080020292029A03941A6B42F0010283
:101870001A631A6B02F001020392039A04941A6B22
:1018800042F002021A631B6B03F002030493049BF1
:10189000DFF8AC8022464FF40051404601F067FD6E
:1018A000284D01224FF40041284601F060FD264FEB
:1018B00022464FF40041384601F059FD22464FF4CC
:1018C0004271284601F053FD4FF400530593012661
:1018D00006964FF00209CDF81C90089405A94046E1
:1018E00001F05EFC4FF4804305930694079605A92A
:1018F000284601F055FC4FF40048CDF814800696B8
:101900000794CDF8209005A9284601F049FCCDF8B0
:10191000148006960794089405A9384601F040FC07
:101920004FF44273059306960794089405A9284638
:1019300001F036FC0BB0BDE8F08300BF0038024078
:101940000008024000040240000002400EB430B51E
:10195000A2B0054625AB53F8042B2193802101A8A2
:1019600004F0F6FC04464FF0FF3382B201A928468A
:1019700002F08BFE204622B0BDE8304003B0704735
:10198000F8B5374B834200D0F8BD364B5B6A364A18
:1019900053601268991AB1F5004F4EDB33490A685B
:1019A000013A0A60314A1068C0EB0040184400F563
:1019B000C330A0302E4A10602B4A13602D4B5B6A57
:1019C0002D4A53601268991AB1F5004F3EDB2B493E
:1019D0000A68013A0A60294A1468C4EB04441C44AA
:1019E00004F5C334A034264A1460234A1360254BFF
:1019F00000221A80244D6F682F60FEF793FF064681
:101A00003946FEF7DDFE2149FEF7E4FF2049FFF7E6
:101A100095F8A8606E606E6C2E642046FEF782FF1B
:101A200004463146FEF7CCFE1849FEF7D3FF1849AD
:101A3000FFF784F8A8646C64A6E7D21AB2F5004FE9
:101A4000B0DB0A490A6801320A60ABE7D21AB2F584
:101A5000004FC0DB09490A6801320A60BBE700BFDA
:101A6000180B0020000C0040A40A00207C0A002073
:101A70000000002000080040AC0A0020800A00207E
:101A80000400002010000020F80900200000FA43A4
:101A9000000050423038C0B20A2804D80C4B1871EC
:101AA0000C4B01221A60062802D0072808D0704784
:101AB000074B01221A71074B4FF0FF321A60F4E70F
:101AC000034B02221A71034B4FF0FF321A60EEE70C
:101AD000940A00201400002038B504468378022BB5
:101AE00015D0042B17D00E4B01229A70E0780C4DC4
:101AF0006871FEF71BFF0B49FEF76CFF4FF0745146
:101B0000FEF768FF084B186023792B7238BD044B31
:101B100001221A70EAE7024B01225A70E6E700BF81
:101B2000940A00200000A0420C00002008B5064BDB
:101B300001221A60027805498A714378CB71044901
:101B40000448FFF703FF08BDB80A0020940A0020EC
:101B50007CC10008380C002038B504460268344BBC
:101B60009A4208D02268334B9A420ED02268324BF8
:101B70009A4234D038BD314D2878FFF78BFF0122CF
:101B800029462F4803F03DF8ECE72E4B1B78092B34
:101B90000FD8591C2B4A11702B4A2C490978D15463
:101BA00053795B2B0DD001222849294803F029F8ED
:101BB000DCE70023234A1370234A13605360138128
:101BC000F1E713782C2BEED115461046FFF784FF72
:101BD00000231C4A13702B606B602B81E3E71D4BC5
:101BE0001A78092A11D8531CDBB21A490B701A490A
:101BF0001A4800788854013BCB5C5B2B0DD0012246
:101C00001649174802F0FDFFB4E70023114A13708C
:101C1000114A136053601381F1E70C460846FFF741
:101C200085FF00230B4A1370236063602381E6E77E
:101C3000001001400044004000140140850A0020CB
:101C4000380C0020920A0020880A0020840A002014
:101C50007C0C0020CA0A0020C00A0020BC0A002018
:101C6000C00C002072B6FEE700B595B0302200210E
:101C700008A804F01BFB0023039304930593069329
:101C800007930193204A116C41F080511164126C4A
:101C900002F080520192019A02931C4A136823F4C5
:101CA000404343F400431360136803F4404302933A
:101CB000029B012308934FF48033099302230E9370
:101CC0004FF480020F9219221092A82211921293BF
:101CD0000423139308A801F051FB80B90F23039349
:101CE00002210491002305934FF48052069207933A
:101CF00003A801F091FD20B915B05DF804FBFFF7D2
:101D0000B1FFFFF7AFFF00BF003802400070004096
:101D100008B501F04FF9FFF7A7FFFFF787FD00F0C7
:101D2000A9FF00F055FE00F085FE01F003F801F078
:101D30001BF800F017FE01F031F800F0ADFE2D4861
:101D400001F0F2FE2C4C0021204602F027FA04217B
:101D5000204602F023FA294C0021204602F096FA90
:101D60000421204602F092FA254C0021204602F080
:101D70008DFA0421204602F089FA012221492248E5
:101D800002F03FFF01222149214802F03AFF0122DF
:101D90002049214802F035FF04F0BCF803E00020A0
:101DA000014604F00FF91D4B1B79052B1DD801A22C
:101DB00052F823F09F1D0008CD1D0008D31D000818
:101DC000D91D0008DF1D0008E51D000800F0D8F847
:101DD000E9E700F05FF9E6E700F0F8F9E3E700F083
:101DE000BFFAE0E700F0DCFBDDE70020014604F08D
:101DF000E9F8D8E7180B0020600B0020A80B0020A2
:101E0000F00B0020850A0020380C0020840A0020F6
:101E10007C0C0020BC0A0020C00C0020940A00208A
:101E200082B0002100910B4B5A6C42F480425A64FC
:101E30005A6C02F480420092009A01911A6C42F0AE
:101E400080521A641B6C03F080530193019B02B013
:101E5000704700BF00380240FEE7FEE7FEE7FEE7FE
:101E6000FEE770477047704708B501F0BDF808BD40
:101E700008B5024801F099FE08BD00BFD00A002055
:101E800008B5024801F091FE08BD00BF180B002004
:101E900008B5024802F05AFD08BD00BF380C00200A
:101EA00008B5024802F052FD08BD00BF7C0C0020BE
:101EB00008B5024802F04AFD08BD00BFC00C002072
:101EC0000120704708B504F0C7F9162303604FF0EE
:101ED000FF3008BD08B54FF0FF31FFF7F3FFFEE715
:101EE00070B50C461646002506E0AFF3008021468B
:101EF00001F8010B01350C46B542F6DB304670BDEA
:101F000070B50C461646002504E014F8010BAFF33B
:101F100000800135B542F8DB304670BD4FF0FF3030
:101F200070474FF400534B6000207047012070470A
:101F30000020704710B503460C4A0D490D48006853
:101F400040B10C4800680344521A934206D8094A2B
:101F5000136010BD0748084C0460F2E704F07CF9F8
:101F60000C2303604FF0FF30F3E700BF00000120B7
:101F700000040000CC0A0020E80D0020704700009B
:101F800030B583B000243C4B1C603C4B93E803000D
:101F900002AB03E9030025462BE0394B1B68394AA5
:101FA00013605B42009303F0A1FF01242EE0009A2E
:101FB000344B1A6003F09AFF012427E0324B0322CE
:101FC0001A7030E0304B04221A702B4B00225A70EA
:101FD0002DE000232C4A1370274A13712BE02A4B63
:101FE00002221A7029E05A21264B186802F0CCFF11
:101FF0000024214B1B79012B3BD11F4B1B7A9AB23A
:10200000AA420CD0012BC8D0022BD0D01A4D1D4BA8
:102010001B682A7A1D491E48FFF798FC2D7A164B3B
:102020009B78012BCAD0144B5B78012BCAD0124B82
:10203000DB78012BCDD0002CD1D1134B1B78013B89
:10204000032B11D801A252F823F000BFF31F0008A0
:10205000E71F00085D2000086320000802F0AAFEC8
:10206000C7E703F0DDFBC4E70020014603F0AAFF49
:10207000BFE703B030BD00BF940A002068C100086C
:102080001400002008000020B40A00209CC10008B1
:10209000380C002030B583B00024454B1C60454B04
:1020A00093E8030002AB03E90300254656E0424BE8
:1020B0001B68424A13605B42009301243C4D3F4B36
:1020C0001B682A7A3E493F48FFF740FC2D7A384B7F
:1020D0009B78012B27D0364B5B78012B27D0344BD4
:1020E000DB78012B2AD0002C2ED1374B1B78013BFB
:1020F000032B55D8DFE803F0322C4E512E4B1A68D3
:102100002E4B1A6003F0F2FE0124D7E7009A2B4B06
:102110001A600124D2E7009A284B1A600124CDE707
:1021200003F0E4FECAE7284B03221A70D3E7264BDC
:1021300004221A701E4B00225A70D0E70023224A54
:1021400013701B4A1371CEE71F4B02221A70CCE7A3
:102150005A211A4B186802F017FF0024144B1B7900
:10216000022B22D1124B1B7A9AB2AA42AFD0033B68
:10217000052BA3D801A252F823F000BFAF2000081E
:10218000FD2000080D21000817210008BD200008CF
:102190002121000802F00EFEE0E703F041FBDDE73D
:1021A0000020014603F00EFFD8E703B030BD00BFAA
:1021B000940A002068C100081400002008000020D4
:1021C0009CC10008380C0020B40A002030B583B050
:1021D0000023594A1360594A92E8030002AA02E90F
:1021E0000300574901220A704A708B704FF6FF7343
:1021F0000322544802F049FA534B1B68002BFBD0D2
:10220000514B00221A604C4B9B79012B23D04F4B32
:1022100001221A604A4900230B704B7010238B7007
:102220004FF6FF730322474802F02FFA02F074FDC5
:102230004749FEF777FD0028F8D1414900240C708A
:102240004C7011238B704FF6FF7303223D4802F050
:102250001CFA25462EE03D4B4FF0FF321A60D9E7BD
:102260003A4B1B685B42009303F040FE01242EE0D2
:10227000009A364B1A6003F039FE012427E0354BF3
:1022800003221A7030E0334B04221A702A4B0022CA
:102290005A702DE000232F4A1370274A13712BE048
:1022A0002C4B02221A7029E05A21284B186802F0A0
:1022B000DFFF0024204B1B79032B3AD11E4B1B7AE6
:1022C0009AB2AA420CD0012BCAD0022BD0D01A4D00
:1022D0001E4B1B682A7A20492048FFF737FB2D7ACE
:1022E000154B9B78012BCAD0134B5B78012BCAD0BE
:1022F000114BDB78012BCDD0002CD1D1154B1B78A5
:10230000013B032B10D801A252F823F0B52200089C
:10231000A92200081D2300082323000802F0C0FDA5
:10232000C8E703F075FBC5E70020014603F04AFE4D
:10233000C0E703B030BD00BF940A002068C10008A8
:10234000780A0020C00C0020B80A002008000020F5
:1023500000004843B40A00209CC10008380C00204B
:1023600070B582B00023814A1360814A92E803006D
:1023700002AA02E903007F4901220A704A708B70A9
:102380004FF6FF7303227C4802F07FF97B4B1B68FA
:10239000002BFBD00023794A1360744A9579754964
:1023A0000B704B7010238B704FF6FF730322724833
:1023B00002F06BF902F0B0FC7149FEF7B3FC0028A3
:1023C000F8D16C4900240C704C7011238B704FF6BF
:1023D000FF730322684802F058F9264699E06549E0
:1023E00001230B7002234B7000238B704FF6FF7399
:1023F0000322614802F049F9624B634A1A605B4E5E
:10240000624B1B68327A62496248FFF79FFA367A5C
:10241000564B9B78012B5CD0544B5B78012B5CD0E6
:10242000524BDB78012B5FD0002C61D1534B1B68E2
:10243000012B61D0584B1B78013B032B00F28E809F
:10244000DFE803F067618689484B9B79AB4207D090
:10245000464BDB79AB4203D04C4B01221A6003E0C0
:102460004A4B4FF0FF321A60484B1B685B420193A6
:10247000404901240C704C7000238B704FF6FF73A1
:1024800003223D4802F001F93E4B3F4A1A60B6E78D
:10249000364B9B79AB420AD03C4B01221A603B4B36
:1024A0001B685B42009303F021FD0124A7E7374B33
:1024B0004FF0FF321A60F2E7009A344B1A600124A1
:1024C0009DE7019A314B1A60012498E703F00EFD55
:1024D00095E7314B03221A709EE7244B00225A7075
:1024E0002D4B04221A709BE72B4B00221A709BE79E
:1024F000294B02221A7099E7204B00221A60214BC7
:10250000264A1A6096E75A21204B186802F0B0FE5E
:102510000024164B1B79042B25D1144B1B7A9AB23D
:10252000B2423FF475AF023B062B3FF668AF01A203
:1025300052F823F0DF230008492400089124000802
:10254000B9240008C3240008FF230008CD24000894
:1025500002F0A6FCDDE703F05BFADAE700200146B3
:1025600003F030FDD5E702B070BD00BF940A002033
:1025700068C10008780A0020C00C0020B80A0020BA
:1025800000004843240000200000504108000020C3
:102590009CC10008380C0020B40A002000009841BB
:1025A0002DE9F04186B000249D4B1C609D4B93E8C3
:1025B000070006AB03E907009B4901230B700322C8
:1025C0004A708C704FF6FF73984802F05EF8984B93
:1025D0001B68002BFBD00023954A1360904A977923
:1025E00092F8078090490B704B7010238B704FF658
:1025F000FF7303228D4802F048F802F08DFB8D49ED
:10260000FEF790FB0028F8D1874900240C704C702D
:1026100011238B704FF6FF730322844802F035F8C4
:102620002646254660E1804901230B7002234B704A
:1026300000238B704FF6FF7303227C4802F025F8CD
:102640007D4B7E4A1A605FE1754B9B79BB4210D08F
:10265000734AD279BA4221D0BB4222D0BA4220D0AA
:1026600043451ED042451CD00124754B1C600326F7
:1026700009E06B4AD2794245EAD1714B4FF0FF3203
:102680001A6001263446664B1B7A033B062B3AD868
:10269000DFE803F02666797C813986004345DBD18B
:1026A000EBE7BB4206D0BA4204D00124644B1C6065
:1026B000042605E0624B4FF0FF321A600226012427
:1026C000574B1B7A033B082B1DD8DFE813F06C0037
:1026D0007F0093009800C100D500DA001C00DF00E5
:1026E000514901230B704B7000238B704FF6FF7321
:1026F00003224E4801F0C9FF4F4B504A1A60504B1D
:102700001B685B420493464D00964D4B1B682A7A2A
:102710004C494D48FFF71AF92D7A414B9B78012B14
:1027200000F0B7803E4B5B78012B00F0B6803C4B4D
:10273000DB78012B00F0B880002C40F0C4803C4BCB
:102740001B68012B00F0C380404B1B78013B032B1F
:1027500000F2F080DFE813F0C800C200E800EB00F0
:102760002F4B9B79BB4209D0354B01221A60344B69
:102770001B68039303F0BAFB0124C4E7304B4FF00E
:10278000FF321A60F3E703F0B1FBBCE7039A2C4B6E
:102790001A600124B7E7049A294B1A600124B2E7B2
:1027A00003F0A4FBAFE7204901230B704B7000231B
:1027B0008B704FF6FF7303221C4801F066FF1E4B1F
:1027C0001E4A1A601E4B1B6805939CE7144B9B79AD
:1027D000BB420AD01A4B01221A60194B1B685B429C
:1027E000039303F083FB01248DE7154B4FF0FF3279
:1027F0001A60F2E7039A124B1A60012483E70A4930
:1028000001230B704B7000238B704FF6FF73032274
:10281000064801F03AFF084B084A1A6073E700BF08
:10282000940A002070C10008780A0020C00C002023
:10283000B80A002000004843240000200000504156
:1028400008000020ACC10008380C0020B40A0020A9
:102850003C4B9B7943450AD03B4B01221A603A4BD3
:102860001B685B42049303F041FB01244BE7364BAA
:102870004FF0FF321A60F2E7049A334B1A600124DA
:1028800041E7059A304B1A6001243CE703F02EFB28
:1028900039E72E4B03221A7044E72A4B00225A7064
:1028A0002A4B04221A7042E70023284A1370284951
:1028B0000B704B7030238B704FF6FF73032225484B
:1028C00001F0E3FE38E7214B02221A7037E7224B72
:1028D00000221A60214B224A1A6035E75A211A4B0E
:1028E000186802F0C5FC0024164B1B79052B26D175
:1028F000144B1B7A9AB2AA423FF40FAF022B3FF45B
:1029000092AE032B3FF4A0AE731E032B3FF6FBAE3B
:1029100001A252F823F000BF87260008C126000854
:1029200087260008C126000802F0BAFADCE703F0A7
:102930009FF9D9E70020014603F044FBD4E706B035
:10294000BDE8F081940A002008000020B40A0020AD
:10295000780A0020C00C0020B80A002024000020C3
:102960000000984100B587B00023029303930493BD
:1029700005930093019315484FF0804202601322A3
:102980004260836042F2CF02C2600361836101F062
:1029900017FA90B94FF48053029302A90B4801F043
:1029A0006FFB68B90023009301936946074801F063
:1029B000D3FC40B907B05DF804FBFFF753F9E9E732
:1029C000FFF750F9EEE7FFF74DF9F3E7180B00209A
:1029D00000B58DB02422002103A803F067FC00237A
:1029E000019302931148124A0260436083604FF6DC
:1029F000FF72C2600361836101230393059309930E
:102A000003A901F035FA50B900230193029301A9FB
:102A1000064801F0A1FC28B90DB05DF804FBFFF7F2
:102A200021F9F1E7FFF71EF9F6E700BFA80B002038
:102A30000008004000B58DB02422002103A803F057
:102A400035FC0023019302931148124A026043604F
:102A500083604FF0FF32C2600361836101230393FF
:102A60000593099303A901F003FA50B900230193D8
:102A7000029301A9064801F06FFC28B90DB05DF87A
:102A800004FBFFF7EFF8F1E7FFF7ECF8F6E700BF1C
:102A9000F00B0020000C004008B50A480A4B036008
:102AA00040F2E73343600023836042F2CF02C2600A
:102AB0000361836101F084F900B908BDFFF7D2F822
:102AC000FBE700BFD00A00200044014000B585B0FC
:102AD0000368B3F1804F08D01F4A93421AD01F4AAF
:102AE000934224D005B05DF804FB0021019103F569
:102AF0000E331A6C42F001021A641B6C03F00103DE
:102B00000193019B0A461C2000F092FA1C2000F061
:102B1000C7FAE7E700230293114B1A6C42F0020256
:102B20001A641B6C03F002030293029BDAE7002293
:102B300003920B4B596C41F4003159645B6C03F404
:102B400000330393039B0321192000F071FA19202D
:102B500000F0A6FAC6E700BF0004004000440140B0
:102B60000038024000B58BB000230593069307930D
:102B7000089309930368244A934205D0234A934259
:102B800022D00BB05DF804FB00210191204B1A6CA0
:102B900042F004021A641A6C02F004020192019AD3
:102BA00002911A6B42F002021A631B6B03F00203DC
:102BB0000293029BC023059302230693099305A960
:102BC000144800F0EDFADCE700210391104B1A6C79
:102BD00042F008021A641A6C02F008020392039A87
:102BE00004911A6B42F001021A631B6B03F001039C
:102BF0000493049B0323059302230693099305A9D9
:102C0000054800F0CDFABCE700080040000C004089
:102C100000380240000402400000024000B587B0C6
:102C200000230193029303930493059302680E4BD0
:102C30009A4202D007B05DF804FB002300930B4BCF
:102C40001A6B42F002021A631B6B03F0020300933B
:102C5000009B3023019302230293059301A90448AA
:102C600000F09EFAE6E700BF000400400038024092
:102C70000004024000B58FB000230A930B930C931D
:102C80000D9308930993019302930393049305937F
:102C9000069307932548264A02604360836042F208
:102CA000CF02C2600361836101F08AF858BB4FF420
:102CB00080530A930AA91D4801F0E2F930BB1B4872
:102CC00001F0AAF828BB00230893099308A9174824
:102CD00001F042FB00BB60230193002202920392A9
:102CE000059201A9114801F051F9C0B904220DEB78
:102CF00002010E4801F04AF9A0B90C48FFF78EFF17
:102D00000FB05DF804FBFEF7ADFFD0E7FEF7AAFFBA
:102D1000D5E7FEF7A7FFD6E7FEF7A4FFDBE7FEF750
:102D2000A1FFE3E7FEF79EFFE7E700BF600B00208F
:102D30000004004008B50A480A4B03604FF41653DC
:102D4000436000238360C36003610C22426183619E
:102D5000C36101F06BFC00B908BDFEF783FFFBE720
:102D6000380C00200010014008B50A480A4B0360E7
:102D70004FF4E133436000238360C36003610C229E
:102D800042618361C36101F051FC00B908BDFEF7E7
:102D900069FFFBE77C0C00200044004008B50A48AE
:102DA0000A4B03604FF4E133436000238360C36048
:102DB00003610C2242618361C36101F037FC00B9F9
:102DC00008BDFEF74FFFFBE7C00C002000140140D8
:102DD00010B58CB000230793089309930A930B93C3
:102DE0000368474A934207D0464A934230D0464A46
:102DF000934258D00CB010BD00240194434B5A6C40
:102E000042F010025A645A6C02F010020192019AC8
:102E100002941A6B42F001021A631B6B03F0010368
:102E20000293029B4FF4C06307930223089303238A
:102E30000A9307230B9307A9354800F0B1F92246FE
:102E40000521252000F0F4F8252000F029F9D1E72C
:102E5000002403942D4B1A6C42F400321A641A6C4D
:102E600002F400320392039A04941A6B42F00102B6
:102E70001A631B6B03F001030493049B0C23079359
:102E80000223089303230A9307230B9307A92048DF
:102E900000F086F922462146262000F0C9F82620B7
:102EA00000F0FEF8A6E700240594184B5A6C42F097
:102EB00020025A645A6C02F020020592059A069488
:102EC0001A6B42F001021A631B6B03F001030693B5
:102ED000069B4FF4C05307930223089303230A93DE
:102EE00008230B9307A90A4800F05AF92246214605
:102EF000472000F09DF8472000F0D2F87AE700BFA5
:102F0000001001400044004000140140003802401D
:102F100000000240DFF834D00D480E490E4A00236D
:102F200002E0D458C4500433C4188C42F9D30B4A7D
:102F30000B4C002301E013600432A242FBD3FFF7E5
:102F40001DF803F08FF9FEF7E3FE70470000012043
:102F500000000020D8090020E4C50008D80900209E
:102F6000E40D0020FEE7000010B504460E4B187873
:102F70004FF47A73B3FBF0F30C4A1068B0FBF3F034
:102F800000F09CF868B90F2C01D901200AE000225A
:102F900021464FF0FF3000F04BF8054B1C6000203D
:102FA00000E0012010BD00BF1C0000201800002020
:102FB0002000002008B50B4B1A6842F400721A601A
:102FC0001A6842F480621A601A6842F480721A60C9
:102FD000032000F01BF80F20FFF7C6FFFEF720FFCD
:102FE000002008BD003C0240034A1168034B1B78D7
:102FF0000B441360704700BF040D00201C0000202C
:10300000014B1868704700BF040D0020074AD368C1
:1030100023F4E0631B041B0C000200F4E060034394
:1030200043F0BF6343F40033D360704700ED00E02A
:1030300000B5194BDB68C3F30223C3F1070CBCF1E5
:10304000040F28BF4FF0040C03F1040EBEF1060F6D
:1030500018D9033B4FF0FF3E0EFA0CFC21EA0C019D
:1030600099400EFA03F322EA0303194300280BDB0D
:103070000901C9B200F1604000F5614080F8001319
:103080005DF804FB0023E5E700F00F000901C9B279
:10309000024B1954F4E700BF00ED00E014ED00E02E
:1030A000002807DB00F01F02400901239340024A79
:1030B00042F82030704700BF00E100E00138B0F175
:1030C000807F0BD24FF0E0235861054AF02182F84F
:1030D00023100020986107221A6170470120704771
:1030E00000ED00E070B50446866DFFF789FF94F8A7
:1030F0003530DBB2022B06D080236365002384F8D1
:103100003430012070BD05462268136823F0160391
:1031100013602268536923F080035361236CE3B189
:103120002268136823F0080313602268136823F0F1
:103130000103136023681B6813F0010F11D0FFF720
:103140005FFF431B052BF5D920236365032084F81B
:103150003500002384F83430D4E7A36C002BDFD192
:10316000E3E7E26D3F239340B360012384F83530F9
:10317000002084F83400C5E790F83530DBB2022B2C
:1031800003D08023436501207047052380F8353044
:103190000268136823F001031360002070470000E9
:1031A00000230F2B00F2D28070B582B060E08568FA
:1031B0005E000324B44025EA0405CC68B4402C43E7
:1031C0008460456825EA02054C68C4F300129A4001
:1031D0002A4342605AE0DC08083450F8246003F0C7
:1031E000070295000F22AA4026EA020E0A69AA40A9
:1031F00042EA0E0240F824205CE0042200E00022B3
:1032000002FA0EF22A430234514D45F82420514A65
:1032100014686FEA0C0224EA0C054E6816F4803F2D
:1032200001D04CEA04054B4C2560646802EA0405B1
:103230004E6816F4003F01D04CEA0405454C656029
:10324000A46802EA04054E6816F4801F01D04CEA17
:103250000405404CA560E46822404D6815F4001F49
:1032600001D04CEA04023B4CE26001330F2B6BD8D7
:1032700001229A400C6804EA020C32EA0404F4D1F8
:103280004C6804F00304013C012C90D94A6802F018
:103290000302032A09D0C4685D000322AA4024EA7D
:1032A00002048A68AA402243C2604A6802F003020C
:1032B000022A90D004684FEA430E032202FA0EF26B
:1032C00024EA02044A6802F0030202FA0EF22243E0
:1032D00002604A6812F4403FC7D0002201921E4AA1
:1032E000546C44F480445464526C02F48042019261
:1032F000019A9C08A51C164A52F8255003F00302B7
:103300004FEA820E0F2202FA0EF225EA0205134A54
:1033100090423FF474AF02F5806290420ED002F505
:10332000806290420CD002F5806290420AD002F591
:10333000806290423FF461AF072261E701225FE7BC
:1033400002225DE703225BE702B070BD704700BF59
:1033500000380140003C01400038024000000240BB
:103360000369194201D001207047002070470AB15B
:10337000816170470904816170470000002800F0F6
:10338000E08170B582B00446036813F0010F3BD0B2
:103390009F4B9B6803F00C03042B2CD09C4B9B6829
:1033A00003F00C03082B21D06368B3F5803F4FD0A6
:1033B000B3F5A02F52D0964B1A6822F480321A60CF
:1033C0001A6822F480221A606368002B50D0FFF73D
:1033D00017FE05468E4B1B6813F4003F14D1FFF710
:1033E0000FFE401B6428F5D90320B1E1884B5B68D0
:1033F00013F4800FD8D0864B1B6813F4003F03D022
:103400006368002B00F09F81236813F0020F54D0F3
:103410007F4B9B6813F00C0F3ED07D4B9B6803F0F5
:103420000C03082B33D0E368002B68D0794B0122C2
:103430001A60FFF7E5FD0546754B1B6813F0020F98
:1034400054D1FFF7DDFD401B0228F5D903207FE1B1
:103450006F4A136843F480331360B5E76C4B1A6806
:1034600042F480221A601A6842F480321A60ABE794
:10347000FFF7C6FD0546664B1B6813F4003FC3D03B
:10348000FFF7BEFD401B6428F5D9032060E1604BC7
:103490005B6813F4800FC6D15D4B1B6813F0020FFD
:1034A00003D0E368012B40F05081594A136823F0A0
:1034B000F803216943EAC1031360236813F0080F7E
:1034C00042D063696BB3534B0122C3F8802EFFF7E0
:1034D00097FD05464E4B5B6F13F0020F34D1FFF79B
:1034E0008FFD401B0228F5D9032031E1484A1368BB
:1034F00023F0F803216943EAC1031360DDE7454B7C
:1035000000221A60FFF77CFD0546414B1B6813F053
:10351000020FD2D0FFF774FD401B0228F5D903201B
:1035200016E13C4B0022C3F8802EFFF769FD0546EB
:10353000374B5B6F13F0020F06D0FFF761FD401BA6
:103540000228F5D9032003E1236813F0040F77D094
:103550002F4B1B6C13F0805F33D1002301932C4B56
:103560001A6C42F080521A641B6C03F08053019372
:10357000019B0125284B1B6813F4807F23D0A3688F
:10358000012B34D0052B38D0214B1A6F22F00102C9
:103590001A671A6F22F004021A67A368002B3DD045
:1035A000FFF72EFD06461A4B1B6F13F0020F46D194
:1035B000FFF726FD801B41F288339842F3D90320A0
:1035C000C6E00025D6E7144A136843F480731360FD
:1035D000FFF716FD0646104B1B6813F4807FCED113
:1035E000FFF70EFD801B0228F5D90320B0E0084A42
:1035F000136F43F001031367CFE7054B1A6F42F0D7
:1036000004021A671A6F42F001021A67C5E700BF89
:10361000003802400000474200700040FFF7F0FC15
:103620000646524B1B6F13F0020F08D0FFF7E8FC61
:10363000801B41F288339842F3D9032088E0EDB92A
:10364000A369002B00F08380484A926802F00C02C4
:10365000082A51D0022B17D0454B00221A66FFF7DB
:10366000CFFC0446414B1B6813F0007F42D0FFF7AC
:10367000C7FC001B0228F5D9032069E03B4A136C04
:1036800023F080531364DBE7394B00221A66FFF7FF
:10369000B7FC0546354B1B6813F0007F06D0FFF7DB
:1036A000AFFC401B0228F5D9032051E0E369226AF0
:1036B0001343626A43EA8213A26A5208013A43EA58
:1036C0000243E26A43EA0263284A5360284B01221C
:1036D0001A66FFF795FC0446244B1B6813F0007F25
:1036E00006D1FFF78DFC001B0228F5D903202FE03F
:1036F00000202DE000202BE0012B2BD01B4B5B6822
:1037000003F48001E269914226D103F03F02216A6D
:103710008A4223D1616A47F6C0721A40B2EB811F18
:103720001ED103F44031A26A5208013AB1EB024FB4
:1037300018D103F07063E26AB3EB026F14D100207A
:1037400006E001207047012002E0012000E0002097
:1037500002B070BD0120FBE70120F9E70120F7E787
:103760000120F5E70120F3E70120F1E700380240EE
:103770000000474208B5254B9B6803F00C03042B5F
:103780003FD0082B3FD1214B5A6802F03F025B68C3
:1037900013F4800F12D01D4B5968C1F388111C48D7
:1037A0000023A1FB0001FDF721FB184B5B68C3F36D
:1037B000014301335B00B0FBF3F025E0134B596884
:1037C000C1F3881C4FEA4C11B1EB0C006EEB0E0EEE
:1037D0004FEA8E1343EA90638101091A63EB0E03EB
:1037E000DB0043EA5173C90011EB0C0C43F10003F9
:1037F000990200234FEA8C2041EA9C51FDF7F6FA2A
:10380000D3E7034800E0034808BD00BF003802408A
:1038100040787D010024F400002800F09B8070B502
:103820000D4604464F4B1B6803F007038B4208D23A
:10383000CBB24C4A1370136803F007038B4240F07D
:103840008B80236813F0020F17D013F0040F04D0FD
:10385000454A936843F4E0539360236813F0080FDC
:1038600004D0414A936843F4604393603E4A9368AE
:1038700023F0F003A1680B439360236813F0010F5A
:1038800032D06368012B21D09A1E012A25D9364AED
:10389000126812F0020F61D033498A6822F00302E5
:1038A00013438B60FFF7ACFB06462F4B9B6803F07E
:1038B0000C036268B3EB820F16D0FFF7A1FB801BED
:1038C00041F288339842F0D9032042E0264A126838
:1038D00012F4003FE0D101203BE0234A126812F0CD
:1038E000007FD9D1012034E01E4B1B6803F0070391
:1038F000AB4207D9EAB21B4B1A701B6803F00703EF
:10390000AB422DD1236813F0040F06D0164A9368FA
:1039100023F4E053E1680B439360236813F0080F2E
:1039200007D0114A936823F46043216943EAC10335
:103930009360FFF71FFF0C4B9B68C3F303130B4A05
:10394000D35CD8400A4B18600A4B1868FFF70CFB91
:10395000002070BD012070470120FAE70120F8E740
:103960000120F6E7003C02400038024084C1000814
:103970001800002020000020014B1868704700BF8D
:103980001800002008B5FFF7F7FF044B9B68C3F34E
:103990008223034AD35CD84008BD00BF00380240F0
:1039A00094C1000808B5FFF7E7FF044B9B68C3F319
:1039B0004233034AD35CD84008BD00BF0038024000
:1039C00094C1000870B4036A23F001030362036A20
:1039D0004668826922F073020C6844EA020523F00B
:1039E00002028B6813430D4CA04209D00B4CA0423D
:1039F0000DD0466085614A684263036270BC7047BF
:103A000023F00803CA68134323F00403EEE726F407
:103A100040764A6932438E691643EAE70000014066
:103A200030B4036A23F480730362036A4568C26991
:103A300022F073020C68224323F400738C6843EA7B
:103A400004230F4CA04209D00D4CA0420ED045607B
:103A5000C2614A68C263036230BC704723F40063EA
:103A6000CC6843EA042323F48063EDE725F4405552
:103A70004C6945EA04158C6945EA0415E7E700BF7F
:103A80000000014030B4036A23F480530362036AE8
:103A90004468C26922F4E6420D6842EA052223F432
:103AA00000538D6843EA0533074DA84206D04460B1
:103AB000C2614A680264036230BC704724F48044E7
:103AC0004D6944EA8514F2E70000014010B4036A2E
:103AD000046A24F001040462846924F0F00C4CEAC6
:103AE000021223F00A030B438261036210BC704789
:103AF00010B4046A24F0100404628469036A24F494
:103B0000704C4CEA023223F0A00343EA01138261B5
:103B1000036210BC7047836823F070030B4343F0CB
:103B2000070383607047000090F83D30DBB2012B43
:103B30002FD1022380F83D300268D36843F001039F
:103B4000D3600368154A934218D0B3F1804F15D063
:103B5000A2F57C42934211D002F5806293420DD0CF
:103B600002F58062934209D002F59A32934205D061
:103B70001A6842F001021A60002070479A6802F049
:103B80000702062A07D01A6842F001021A600020D4
:103B90007047012070470020704700BF00000140BF
:103BA0007047704770477047704710B50446036808
:103BB0001A6912F0020F11D0DA6812F0020F0DD05C
:103BC0006FF002021A610123037703689B6913F007
:103BD000030F70D0FFF7E6FF0023237723681A69ED
:103BE00012F0040F12D0DA6812F0040F0ED06FF04A
:103BF00004021A610223237723689B6913F4407F30
:103C00005FD02046FFF7CEFF0023237723681A6991
:103C100012F0080F12D0DA6812F0080F0ED06FF011
:103C200008021A61042323772368DB6913F0030F6A
:103C30004ED02046FFF7B6FF0023237723681A698A
:103C400012F0100F12D0DA6812F0100F0ED06FF0D1
:103C500010021A61082323772368DB6913F4407F7D
:103C60003DD02046FFF79EFF0023237723681A6983
:103C700012F0010F03D0DA6812F0010F36D1236879
:103C80001A6912F0800F03D0DA6812F0800F34D175
:103C900023681A6912F0400F03D0DA6812F0400F5F
:103CA00032D123681A6912F0200F03D0DA6812F0BB
:103CB000200F30D110BDFFF774FF2046FFF773FFD0
:103CC0008AE72046FFF76DFF2046FFF76CFF9BE772
:103CD0002046FFF766FF2046FFF765FFACE720466A
:103CE000FFF75FFF2046FFF75EFFBDE76FF00102C1
:103CF0001A612046FDF744FEC1E76FF080021A61A9
:103D0000204600F068FBC3E76FF040021A612046CE
:103D1000FFF74AFFC5E76FF020021A61204600F066
:103D200059FBC7E70368254A90420ED0B0F1804F97
:103D30000BD0A2F57C42904207D002F580629042FF
:103D400003D002F58062904203D123F070034A68E9
:103D500013431A4A90421AD0B0F1804F17D0A2F5FF
:103D60007C42904213D002F5806290420FD002F55F
:103D7000806290420BD002F59A32904207D002F551
:103D80008062904203D002F58062904203D123F416
:103D90004073CA68134323F080034A6913430360E6
:103DA0008B68C3620B688362044B984202D0012384
:103DB000436170470B690363F9E700BF00000140EE
:103DC00040B310B5044690F83D30F3B1022384F8B7
:103DD0003D30214651F8040BFFF7A4FF012384F87E
:103DE000463084F83E3084F83F3084F8403084F820
:103DF000413084F8423084F8433084F8443084F809
:103E0000453084F83D30002010BD80F83C30FEF78E
:103E10005DFEDBE70120704740B310B5044690F823
:103E20003D30F3B1022384F83D30214651F8040BB4
:103E3000FFF778FF012384F8463084F83E3084F899
:103E40003F3084F8403084F8413084F8423084F8C0
:103E5000433084F8443084F8453084F83D30002005
:103E600010BD80F83C30FFF79BFEDBE70120704778
:103E7000002857D070B50D46044690F83D30002B11
:103E80004BD0022384F83D302268936823F48043AA
:103E900023F007039360214651F8040BFFF742FF1C
:103EA00021688A688B690E6A2868104323F4407C75
:103EB0002CF0030CAA68AB6942EA032343EA0C0323
:103EC00023F47C4323F0FC03EA69D5F80CC04CEAE8
:103ED000022C4CEA030C2A6A13032A6943EA0213F0
:103EE00043EA0C0326F0AA066A686D6942EA0512E5
:103EF0003243886021688B6123681A62012384F849
:103F0000463084F83E3084F83F3084F8423084F8FC
:103F1000433084F83D30002070BD80F83C30FEF71F
:103F200021FEAEE70120704730B4036A23F010038E
:103F30000362036A4468826922F4E6420D6842EA39
:103F4000052223F020038D6843EA05130E4DA84295
:103F500009D00D4DA8420ED0446082614A68826348
:103F6000036230BC704723F08003CD6843EA051339
:103F700023F04003EDE724F440644D6944EA8504EE
:103F80008D6944EA8504E7E70000014038B590F800
:103F90003C30012B66D004460D46012380F83C30AE
:103FA0000C2A5AD8DFE802F0075959591B595959B8
:103FB0003059595944000068FFF704FD226893699D
:103FC00043F0080393612268936923F0040393612B
:103FD0002268936929690B43936100203EE00068E1
:103FE000FFF7A2FF2268936943F40063936122689C
:103FF000936923F48063936122689369296943EA92
:1040000001239361002029E00068FFF709FD226881
:10401000D36943F00803D3612268D36923F0040312
:10402000D3612268D36929690B43D361002015E06D
:104030000068FFF727FD2268D36943F40063D3616A
:104040002268D36923F48063D3612268D369296924
:1040500043EA0123D361002000E00120002384F81B
:104060003C3038BD0220FCE710B4846824F47F4C57
:1040700042EA03220A4342EA0C02826010BC704703
:1040800090F83C30012B78D010B50446012380F81D
:104090003C30022380F83D300268936823F47F436C
:1040A00023F0770393600B68602B4CD029D8402B0A
:1040B00054D00CD9502B22D1CA6849680068FFF748
:1040C00005FD50212068FFF726FD002005E0202B8C
:1040D0000DD009D9302B0AD00120012384F83D30BE
:1040E000002384F83C3010BD0BB1102B05D11946CC
:1040F0002068FFF710FD0020EFE70120EDE7012029
:10410000EBE7B3F5805F34D0B3F5005F0CD1CB683B
:104110004A6889680068FFF7A7FF2268936843F43C
:10412000804393600020D8E7702B24D1CB684A6885
:1041300089680068FFF798FF2268936843F0770367
:1041400093600020C9E7CA6849680068FFF7D0FC9F
:1041500060212068FFF7DFFC0020BEE7CA684968DD
:104160000068FFF7B3FC40212068FFF7D4FC002073
:10417000B3E70020B1E70120AFE70220704701F06C
:104180001F01012303FA01FC036A23EA0C03036203
:10419000036A02FA01F10B430362704710B504464B
:1041A0000846002932D194F83E30DBB2013B18BFFB
:1041B0000123002B63D1002841D1022384F83E3033
:1041C000012201462068FFF7DAFF23682E4A934256
:1041D00045D023682C4A934246D0B3F1804F43D058
:1041E000A2F57C4293423FD002F5806293423BD0DD
:1041F00002F58062934237D002F59A32934233D06F
:104200001A6842F001021A60002037E0042908D041
:1042100008290DD094F84130DBB2013B18BF0123CF
:10422000C7E794F83F30DBB2013B18BF0123C0E77A
:1042300094F84030DBB2013B18BF0123B9E70428F2
:1042400005D0082807D0022384F84130B8E70223BC
:1042500084F83F30B4E7022384F84030B0E75A6C6A
:1042600042F400425A64B4E79A6802F00702062A50
:1042700007D01A6842F001021A60002010BD012028
:10428000FCE70020FAE700BF0000014038B5044613
:1042900090F83E00C0B294F83F3094F84220D2B279
:1042A00094F843C00D46B1B9012849D1012A48D13B
:1042B000022384F83E3084F842307DB3042D39D097
:1042C000012200212068FFF75AFF01220421206803
:1042D000FFF755FF27E0DBB25FFA8CFC042912D010
:1042E000012833D1012B2CD1012A31D1BCF1010F8E
:1042F00030D1022384F83E3084F83F3084F84230D5
:1043000084F84330D9E7012B1CD1BCF1010F1BD13C
:10431000022384F83F3084F84330CEE701220021A5
:104320002068FFF72CFF2268136843F00103136035
:10433000002006E0012204212068FFF720FFF2E7B9
:10434000012038BD0120FCE71846FAE70120F8E714
:104350001846F6E71046F4E790F83C30012B34D0CD
:1043600010B4012380F83C30022380F83D3003680C
:104370005A689C6822F0700C0A6842EA0C025A6083
:104380000368134A934212D0B3F1804F0FD0A2F5C5
:104390007C4293420BD002F58062934207D002F533
:1043A0008062934203D002F59A32934204D124F002
:1043B00080044A6814439C60012380F83D30002348
:1043C00080F83C30184610BC70470220704700BF90
:1043D0000000014070477047026802F10C0353E887
:1043E000003F23F490730C3242E800310029F3D1EE
:1043F000026802F1140353E8003F23F00103143272
:1044000042E800310029F3D1036B012B05D02023B2
:1044100080F83E30002303637047026802F10C030A
:1044200053E8003F23F010030C3242E8003100292A
:10443000F3D1ECE790F83D30DBB2212B01D0022024
:1044400070478368B3F5805F17D0036A5A1C026215
:104450001A7803685A60C38C9BB2013B9BB2C38439
:104460004BB90268D36823F08003D3600268D36835
:1044700043F04003D360002070470369002BE4D170
:10448000036A1B880268C3F308035360036A02339C
:104490000362E0E738B504460268136923F4405329
:1044A000C1680B4313618368026913434269134374
:1044B000C2691A430168CB6823F4164323F00C0346
:1044C0001343CB600268536923F4407381690B4343
:1044D00053610368314A934206D002F580629342E9
:1044E00002D0FFF74FFA01E0FFF75CFAE369B3F59A
:1044F000004F29D00021031849411B1841F1000148
:10450000C90041EA5371DB00181863684FEA83025F
:104510004FEA937341F10001FCF768FC204DA5FBC5
:1045200000325109642303FB11031B013233A5FB45
:1045300003235B0903F0F00202EB011203F00F0307
:10454000216813448B6038BD0023021843EB03013C
:10455000121841F10001C90041EA5271D20010184D
:1045600041F10001626892185B41FCF73FFC0C4D81
:10457000A5FB00325109642303FB1103DB00323336
:10458000A5FB03235B095A0002F4F87202EB011247
:1045900003F00703216813448B60D4E70010014047
:1045A0001F85EB512DE9F84305460F4616469946FF
:1045B000DDF820802C68246837EA04030CBF4FF034
:1045C000010C4FF0000CB4452DD1B8F1FF3FF1D0F4
:1045D000B8F1000F05D0FEF713FDA0EB0900404530
:1045E000E8D92A6802F10C0353E8003F23F4D073A2
:1045F0000C3242E800310029F3D12A6802F1140399
:1046000053E8003F23F00103143242E8003100294F
:10461000F3D1202385F83D3085F83E30002385F81E
:104620003C30032000E00020BDE8F88358B310B50B
:10463000044690F83D300BB3242384F83D302268C3
:10464000D36823F40053D3602046FFF723FF22688A
:10465000136923F4904313612268536923F02A03FA
:1046600053612268D36843F40053D3600020206470
:10467000202384F83D3084F83E3010BD80F83C3073
:10468000FEF7A6FBD8E7012070472DE9F04182B084
:104690001E4690F83D30DBB2202B54D104460D4627
:1046A0009046002953D0002A53D090F83C30012B7B
:1046B00051D0012380F83C3000230364212380F88B
:1046C0003D30FEF79DFC0746A4F82480A4F8268020
:1046D000A368B3F5805F05D04FF00008002384F88D
:1046E0003C3012E0236913B14FF00008F6E7A8460A
:1046F0000025F3E738F8023B2268C3F30803536050
:10470000E28C92B2013A92B2E284E38C9BB273B132
:1047100000963B46002280212046FFF743FFE0B988
:10472000002DE7D015F8012B23685A60E8E70096C2
:104730003B46002240212046FFF734FF78B9202372
:1047400084F83D3000E0022002B0BDE8F081012095
:10475000FAE70120F8E70220F6E70320F4E7032058
:10476000F2E7704708B50168CA6822F04002CA60E3
:10477000202280F83D20FFF7F4FF002008BD70479D
:1047800008B5806B0023C385C384FFF7F8FF08BD1D
:104790007047000010B50446226802F10C0353E88C
:1047A000003F23F490730C3242E800310029F3D12A
:1047B000226802F1140353E8003F23F0010314328E
:1047C00042E800310029F3D1236B012B1CD0236870
:1047D0005B6913F0400F2ED0226802F1140353E8F6
:1047E000003F23F04003143242E800310029F3D1A6
:1047F000A36BB3B1154A1A65A06BFEF7BDFC18B3E5
:10480000A06B036D98471FE0226802F10C0353E888
:10481000003F23F010030C3242E800310029F3D1AD
:10482000D5E70023E385202284F83E202363204639
:10483000FFF7AEFF08E00023E385202284F83E2046
:1048400023632046FFF7A4FF002010BD5148000855
:1048500008B5806B0023C385202280F83E200363C7
:10486000FFF796FF08BD704790F83E30DBB2222B71
:1048700067D18368B3F5805F4DD0826AB3F5805FFE
:1048800004D0002B54D10369002B51D103685B681D
:104890001370836A01338362C38D9BB2013B9BB269
:1048A000C385002B4FD100B583B00268D36823F0D5
:1048B0002003D3600268D36823F48073D360026856
:1048C000536923F001035361202380F83E30036BCA
:1048D000012B33D100230363026802F10C0353E878
:1048E000003F23F010030C3242E800310029F3D1DD
:1048F00003681A6812F0100F06D0002201921A689D
:1049000001925B680193019B818DFFF7ACFF002052
:1049100003B05DF804FB0269002AAED1826A036825
:104920005B68C3F308031380836A02338362B3E7CF
:1049300003685B6803F07F031370AAE7FDF70CF9C7
:10494000E5E70220704700207047000030B583B0D3
:10495000044602681368D068516913F00F0505D149
:1049600013F0200F02D010F0200F19D12DB111F04B
:10497000010119D110F4907F16D1216B01297DD04E
:1049800013F0800F03D010F0800F40F0158113F06A
:10499000400F03D010F0400F40F0128103B030BD43
:1049A0002046FFF761FFF9E713F0010F06D010F47E
:1049B000807F03D0226C42F00102226413F0040FC6
:1049C00004D019B1226C42F00202226413F0020FEB
:1049D00004D019B1226C42F00402226413F0080FD3
:1049E00007D010F0200F00D119B1226C42F008025C
:1049F0002264226C002AD1D013F0200F02D010F0D4
:104A0000200F29D123685B6903F04003226C12F068
:104A1000080F00D163B32046FFF7DEFC23685B6913
:104A200013F0400F20D0226802F1140353E8003F36
:104A300023F04003143242E800310029F3D1A36B84
:104A400073B1614A1A65A06BFEF796FB0028A5D0EA
:104A5000A06B036D9847A1E72046FFF705FFD1E75C
:104A60002046FFF78CFE99E72046FFF788FE95E782
:104A70002046FFF784FE002323648FE713F0100F16
:104A80003FF47EAF10F0100F3FF47AAF0023019394
:104A90001368019353680193019B536913F0400F0E
:104AA00050D0A26B13685B689BB2002B3FF476AFCB
:104AB000A18D99427FF672AFE385D369B3F5807F0C
:104AC00037D0226802F10C0353E8003F23F48073CF
:104AD0000C3242E800310029F3D1226802F11403BC
:104AE00053E8003F23F00103143242E8003100296B
:104AF000F3D1226802F1140353E8003F23F040038E
:104B0000143242E800310029F3D1202384F83E30EA
:104B100000232363226802F10C0353E8003F23F0D3
:104B200010030C3242E800310029F3D1A06BFEF7EC
:104B3000D9FAA18DE38D9BB2C91A89B22046FFF73D
:104B400092FE2BE7A18DE38D9BB2C91A89B2E38D4A
:104B50009BB2002B3FF422AF00293FF41FAF226825
:104B600002F10C0353E8003F23F490730C3242E847
:104B700000300028F3D1226802F1140353E8003F0B
:104B800023F00103143242E800300028F3D120233F
:104B900084F83E3000232363226802F10C0353E8BB
:104BA000003F23F010030C3242E800300028F3D11C
:104BB0002046FFF758FEF1E62046FFF73BFCEDE606
:104BC0002046FFF7CFFDE9E68147000803468162F2
:104BD0008285C28500201864222283F83E2083F853
:104BE0003C001968CA6842F48072CA6019684A6950
:104BF00042F001024A611A68D36843F02003D3608F
:104C0000704708B590F83E30DBB2202B0DD171B162
:104C10007AB190F83C30012B0DD0012380F83C3064
:104C200000230363FFF7D2FF00E0022008BD01204C
:104C3000FCE70120FAE70220F8E7642303FB00F019
:104C40004FF0E023586100229A611A6942F0010294
:104C50001A614FF0E0231B6903F00113012BF8D018
:104C60004FF0E0231A6922F001021A6100229A61D2
:104C70007047000070B500224FF400412348FEF752
:104C800076FB4FF480412148FEF76AFB0128F8D0FB
:104C9000002426460DE01420FFF7CFFF00224FF43A
:104CA00000411A48FEF763FB1420FFF7C6FF0134EA
:104CB000E4B2172C10D8154D01224FF400412846BC
:104CC000FEF755FB76004FF480412846FEF748FB7F
:104CD0000128E0D10136DEE70C4C01224FF40041FF
:104CE0002046FEF744FB0A20FFF7A7FF00224FF4FF
:104CF00000412046FEF73BFBC6F31602044B9A42E6
:104D000001D0304670BDFFF7B5FFFAE7000402405E
:104D1000FFFF7F000000000008B5FFF7ABFF104B5E
:104D2000A3FB003080094FF47A7303FB00F0A0F579
:104D3000DE20A0F27B60FBF7F5FD0A49FBF7FEFEE3
:104D4000FBF7C2FB04A3D3E90023FBF75DFAFBF7F3
:104D5000E3FC08BDAFF30080CDCCCCCCCCCC2B4059
:104D6000D34D62100080CC4338B50D4CA4FB003409
:104D7000A5092C464FF47A7303FB150085B203E0B6
:104D80000848FFF75AFF013C002CF9D105B938BD9E
:104D90004FF47A7005FB00F0FFF74FFFF7E700BF15
:104DA000D34D621040420F0008B580B2FFF7DCFF20
:104DB00008BD00002DE9F8432D4B2E4818614FF037
:104DC000814159612C4A9A61186559659A652B4B46
:104DD0004FF07D521A602A4A9A602A4B1B880BB109
:104DE000BDE8F883274B01221A80274D274B2B6003
:104DF0000323224A26490968264801F095F900F163
:104E00000044254B1C602868FBF75EFB06460F46F6
:104E10002046FBF759FB0022204BFCF7DFFA8046C7
:104E2000894602460B4630463946FBF7EFF9FBF759
:104E300073FC05460E4CE06342464B46304639460D
:104E4000FBF7E2F9FBF768FCE06704F11002A168E8
:104E5000284601F0E7F8A06304F15002A16CE06F6E
:104E600001F0E0F80146A067A06B01F0ABF8B7E7EE
:104E7000F80900200000164300002041600D0020CA
:104E80000000A04010000020880D00200000984184
:104E90000C0000200000A042080D00200000E03FB0
:104EA0002DE9F8432C4B2D4818614FF08141596191
:104EB0002B4A9A61186559659A652A4B4FF07D52C5
:104EC0001A60294A9A60294B1B880BB1BDE8F88308
:104ED000264B01221A800323224A254909682548C6
:104EE00001F022F900F10044234B1C60234B1868A9
:104EF000FBF7EAFA06460F462046FBF7E5FA0022E2
:104F00001F4BFCF76BFA8046894602460B4630463B
:104F10003946FBF77BF9FBF7FFFB05460E4CE063D8
:104F200042464B4630463946FBF76EF9FBF7F4FB39
:104F3000E06704F11002A168284601F073F8A0634D
:104F400004F15002A16CE06F01F06CF80146A0671B
:104F5000A06B01F037F8B9E7F8090020000016430C
:104F600000002041600D00200000C0401000002023
:104F70000C0000200000A042080D002024000020AA
:104F80000000E03F000000002DE9F0410C46AC4B72
:104F9000AC4D1D614FF081415961AB4A9A611D656D
:104FA00059659A65A94BAA4919604FF07C529A60DD
:104FB000A84B19609A6001282AD06042FBF772FA68
:104FC0009DA3D3E90023FCF709FA06460F46A24B3E
:104FD0001868FBF757FA32463B46FBF717F9FBF721
:104FE0007BFB07462046FBF75DFA93A3D3E900233A
:104FF000FCF7F4F904460D46984B1868FBF742FAA3
:1050000022462B46FBF702F9FBF766FB80469EE043
:105010002046FBF747FA88A3D3E90023FCF7DEF923
:1050200006460F468C4B1868FBF72CFA32463B4677
:10503000FBF7ECF8FBF750FB07466042FBF732FA50
:105040007DA3D3E90023FCF7C9F904460D46834B41
:105050001868FBF717FA22462B46FBF7D7F8FBF741
:105060003BFB804602E07E4B1B886BB33846FBF768
:1050700009FA04460D46784B1E683046FBF702FAE3
:1050800002460B4620462946FBF7BEF8FBF7FCFA22
:105090000028B8BF40420428E5DC4046FBF7F2F99F
:1050A00004460D466D4B1868FBF7ECF902460B46BB
:1050B00020462946FBF7A8F8FBF7E6FA0028B8BF18
:1050C00040420428CFDC6FE0654B01221A80654B1B
:1050D00000221A603846FBF725FC04465B4D30463B
:1050E000FBF720FC01462A46204600F09BFF5E4B62
:1050F0001860594B1868FBF715FC01462A462046F4
:1051000000F090FF4E4CE063544B1868FBF70AFC2C
:1051100005464046FBF706FC4E4A294600F082FF52
:10512000E06704F11002A168E06B00F07BFFA06370
:1051300004F15002A16CE06F00F074FF0146A0671B
:10514000A06B00F03FFF91E7454B1B8893B33846B7
:10515000FBF798F904460D463F4B1E683046FBF7B7
:1051600091F902460B4620462946FBF74DF8FBF71E
:105170008BFA0028B8BF40420428E5DC4046FBF724
:1051800081F904460D46354B1868FBF77BF902465A
:105190000B4620462946FBF737F8FBF775FA00283F
:1051A000B8BF40420428CFDC0020014600F00AFFCF
:1051B000BDE8F0812A4B01221A802A4B00221A6096
:1051C0003846FBF7AFFB0446204D3046FBF7AAFB01
:1051D00001462A46204600F025FF234B18601E4B4F
:1051E0001868FBF79FFB01462A46204600F01AFF8D
:1051F000134CE063194B1868FBF794FB05464046D7
:10520000FBF790FB134A294600F00CFFE06704F11E
:105210001002A168E06B00F005FFA06304F15002EA
:10522000A16CE06F00F0FEFE0146A067A06B00F0ED
:10523000C9FE8CE7AFF30080CDCCCCCCCCCC1840F1
:10524000F80900200000164300002041100D002046
:105250008FC2F53D380D0020000000200400002022
:1052600010000020880D0020080D00200000000024
:105270002DE9F0410C46B04BB04D1D614FF081411E
:105280005961AF4A9A611D6559659A65AD4B1B68B6
:10529000002B40F06981AC4BAC4919604FF07E5255
:1052A0009A60AB4B19609A6001282AD06042FBF7E4
:1052B000F9F89DA3D3E90023FCF790F806460F46C2
:1052C000A44B1868FBF7DEF832463B46FAF79EFF20
:1052D000FBF702FA07462046FBF7E4F892A3D3E96E
:1052E0000023FCF77BF804460D469B4B1868FBF740
:1052F000C9F822462B46FAF789FFFBF7EDF98046FD
:105300009EE02046FBF7CEF889A3D3E90023FCF703
:1053100065F806460F468F4B1868FBF7B3F8324620
:105320003B46FAF773FFFBF7D7F907466042FBF7F6
:10533000B9F87FA3D3E90023FCF750F804460D46E3
:10534000854B1868FBF79EF822462B46FAF75EFF5E
:10535000FBF7C2F9804602E0804B1B886BB33846EE
:10536000FBF790F804460D467A4B1E683046FBF773
:1053700089F802460B4620462946FAF745FFFBF717
:1053800083F90028B8BF40420228E5DC4046FBF71D
:1053900079F804460D46704B1868FBF773F802461F
:1053A0000B4620462946FAF72FFFFBF76DF9002838
:1053B000B8BF40420228CFDC6FE0684B01221A8060
:1053C000674B00221A603846FBF7ACFA04465E4D84
:1053D0003046FBF7A7FA01462A46204600F022FE97
:1053E000604B18605B4B1868FBF79CFA01462A4635
:1053F000204600F017FE504CE063574B1868FBF74F
:1054000091FA05464046FBF78DFA514A294600F0CD
:1054100009FEE06704F11002A168E06B00F002FEF3
:10542000A06304F15002A16CE06F00F0FBFD0146A7
:10543000A067A06B00F0C6FD91E7484B1B8893B3B3
:105440003846FBF71FF804460D46424B1E683046AF
:10545000FBF718F802460B4620462946FAF7D4FE19
:10546000FBF712F90028B8BF40420228E5DC4046AD
:10547000FBF708F804460D46374B1868FBF702F8AF
:1054800002460B4620462946FAF7BEFEFBF7FCF81B
:105490000028B8BF40420228CFDC0020014600F0BF
:1054A00091FDBDE8F0812D4B01221A802C4B00228A
:1054B0001A603846FBF736FA0446234D3046FBF7B0
:1054C00031FA01462A46204600F0ACFD254B186013
:1054D000204B1868FBF726FA01462A46204600F0C2
:1054E000A1FD154CE0631C4B1868FBF71BFA054641
:1054F0004046FBF717FA164A294600F093FDE0678D
:1055000004F11002A168E06B00F08CFDA06304F1CF
:105510005002A16CE06F00F085FD0146A067A06B12
:1055200000F050FD8CE700BFCDCCCCCCCCCC1A40E9
:105530009A99999999991940F80900200000164301
:1055400000002041980D0020100D0020EC51383E45
:10555000380D002000000020040000201000002072
:10556000880D0020080D0020A34BA44919604FF0BE
:105570007E529A60A24B19609A60012828D060423E
:10558000FAF790FF00229F4BFBF728FF06460F46D5
:105590009D4B1868FAF776FF32463B46FAF736FE1F
:1055A000FBF79AF807462046FAF77CFF0022954B56
:1055B000FBF714FF04460D46944B1868FAF762FF98
:1055C00022462B46FAF722FEFBF786F880469EE03D
:1055D0002046FAF767FF86A3D3E90023FBF7FEFE18
:1055E00006460F46884B1868FAF74CFF32463B4692
:1055F000FAF70CFEFBF770F807466042FAF752FF25
:105600007BA3D3E90023FBF7E9FE04460D467F4B5D
:105610001868FAF737FF22462B46FAF7F7FDFBF733
:105620005BF8804602E07A4B1B886BB33846FAF78A
:1056300029FF04460D46744B1E683046FAF722FFD8
:1056400002460B4620462946FAF7DEFDFBF71CF81A
:105650000028B8BF40420228E5DC4046FAF712FFB6
:1056600004460D46694B1868FAF70CFF02460B46D4
:1056700020462946FAF7C8FDFBF706F80028B8BF10
:1056800040420228CFDC08E7614B01221A80614BBF
:1056900000221A603846FBF745F90446564D30465D
:1056A000FBF740F901462A46204600F0BBFC5A4B66
:1056B0001860554B1868FBF735F901462A46204615
:1056C00000F0B0FC554CE063504B1868FBF72AF92A
:1056D00005464046FBF726F9494A294600F0A2FC58
:1056E000E06704F11002A168E06B00F09BFCA0638E
:1056F00004F15002A16CE06F00F094FC0146A06739
:10570000A06B00F05FFC91E7414B1B886BB3384600
:10571000FAF7B8FE04460D463B4B1E683046FAF7D2
:10572000B1FE02460B4620462946FAF76DFDFAF710
:10573000ABFF0028B8BF40420228E5DC4046FAF73C
:10574000A1FE04460D46314B1868FAF79BFE02464F
:105750000B4620462946FAF757FDFAF795FF002831
:10576000B8BF40420228CFDC97E6294B01221A80BD
:10577000284B00221A603846FBF7D4F804461E4D29
:105780003046FBF7CFF801462A46204600F04AFC97
:10579000214B18601C4B1868FBF7C4F801462A46D9
:1057A000204600F03FFC1D4CE063184B1868FBF7E7
:1057B000B9F805464046FBF7B5F8114A294600F00E
:1057C00031FCE06704F11002A168E06B00F02AFCF4
:1057D000A06304F15002A16CE06F00F023FC0146CD
:1057E000A067A06B00F0EEFB91E700BFAFF3008075
:1057F000CDCCCCCCCCCC1840100D0020295C0F3E79
:10580000380D002000001840000000200400002097
:1058100010000020880D0020080D0020F80900204D
:105820002DE9F04100242146204600F0CBFB4FF447
:105830007A70FFF7B9FA644B644818614FF0814100
:105840005961634A9A61186559659A65614B624A64
:105850001A609C60614B1A609C606148FEF79AFF79
:10586000604B1868FAF70EFE55A3D3E90023FAF748
:10587000CDFCFAF731FF07465B4B1868FAF702FEDA
:105880004FA3D3E90023FAF7BFFCFAF725FF8046C0
:1058900003E0564B1B88002B44D03846FAF7F2FD44
:1058A00004460D464F4B1E683046FAF7EBFD0246A4
:1058B0000B4620462946FAF7A7FCFAF7E5FE002832
:1058C000B8BF40420228E4DC4046FAF7DBFD04465C
:1058D0000D46454B1868FAF7D5FD02460B462046A3
:1058E0002946FAF791FCFAF7CFFE0028B8BF4042EC
:1058F0000228CEDC0020014600F064FB3C4C22680C
:10590000013222603B493C48FCF720F82368012B18
:1059100048D0022B4ED0012238493148FFF771F9A7
:10592000BDE8F081314B01221A80354B00221A600C
:105930003846FAF7F7FF0446264D3046FAF7F2FFED
:1059400001462A46204600F06DFB2E4B1860254B81
:105950001868FAF7E7FF01462A46204600F062FB86
:10596000194CE063204B1868FAF7DCFF0546404607
:10597000FAF7D8FF194A294600F054FBE06704F112
:105980001002A168E06B00F04DFBA06304F150022F
:10599000A16CE06F00F046FB0146A067A06B00F031
:1059A00011FB7AE74FF47A70FFF7FEF9164B0122EC
:1059B0001A60B0E7154B00221A71ACE7AFF3008014
:1059C0000000000000709140F8090020000016431C
:1059D00000002041100D0020CDCC4C3D380D0020A2
:1059E0007C0C00200000002004000020100000209B
:1059F000940D0020C4C10008380C0020840A002047
:105A0000880D0020080D0020980D0020940A002029
:105A10002DE9F04100242146204600F0D3FA4FF44E
:105A20007A70FFF7C1F97C4B7C4818614FF08141D7
:105A300059617B4A9A61186559659A65794B7A4A2A
:105A40001A609C60794B1A609C607948FEF7A2FE50
:105A5000784B1868FAF716FD6DA3D3E90023FAF71F
:105A6000D5FBFAF739FE0746734B1868FAF70AFDBB
:105A700067A3D3E90023FAF7C7FBFAF72DFE8046A8
:105A800003E06E4B1B88002B44D03846FAF7FAFC33
:105A900004460D46674B1E683046FAF7F3FC024693
:105AA0000B4620462946FAF7AFFBFAF7EDFD002832
:105AB000B8BF40420228E4DC4046FAF7E3FC044663
:105AC0000D465D4B1868FAF7DDFC02460B46204692
:105AD0002946FAF799FBFAF7D7FD0028B8BF4042EC
:105AE0000228CEDC0020014600F06CFA544C2268FB
:105AF0000132226053495448FBF728FF2368012BE9
